:100EB70041009700410098004100920142009300D1
:060EC7000042009500004E
:10134000900092E06005D292E4F022C29290009266
:031350007401F035
:011353002277
:0713A40053B3FB43B4042224
:10109D00900095E475F0011201B7FEC3E5F094F4EC
:1010AD00EE9401400AE4900095F0A3F012134090E5
:1010BD000093E475F0011201B7FEC3E5F094E8EE7C
:0B10CD0094034007E4900093F0A3F0B0
:0110D80022F5
:03000B000211B728
:1011B700C0E0C0F0C083C082C0D075D000C000C0FE
:1011C70006900097E0F58CA3E0F58AC28D12109D7A
:0F11D700D006D000D0D0D082D083D0F0D0E0327C
:10120F00E4900050F0A3F0F5915389F043890190D9
:10121F00009774F8F0A37430F0758CF8F58AD2A9A2
:04122F00D2AFD28CDC
:011233002298
:03002300020F9C2D
:100F9C00C0E0C0F0C083C082C0D075D000C000C01B
:100FAC0001C002C003C004C005C006C007309807CA
:100FBC00AF99120E48C298309902C299D007D00648
:100FCC00D005D004D003D002D001D000D0D0D08234
:070FDC00D083D0F0D0E03219
:1011E6009000547401F0A31203090001C2007F00AD
:1011F6007E367D6E7C0112039FD299D2ACD2AFE4CB
:09120600900009F090003DF02277
:10135400120D47E4F5B1F5B2F5B3F5B4F5ACF5AD5E
:03136400D2AF22E3
:101367001213541211E61213A412120F1212F08064
:02137700FB2257
:080003003099FDC2998F99228A
:10127A004E5350540045434B4D0042464D54004E88
:10128A0041434B0000000000000000000000000085
:01129A000053
:100ECD004100090041003D00602A00130A04FDFFA6
:100EDD0011130B01FDFF129B0C02FDFF11810D047F
:100EED00FDFF10603E03FDFF114A3F03FDFF10D9CA
:060EFD004000FD000000B2
:0B111300900059EBF0A3EAF0A3E9F014
:10111E00E4FFFDFC900059E0FBA3E0FAA3E02403FA
:10112E00F9E43AFAE92DF9EA3CFA12011CFF0DBD79
:0B113E0000010CED64044C70DB7F002E
:011149002283
:0B129B00900059EBF0A3EAF0A3E9F08B
:1012A600A37496F07B017A00795C7F01120F517F5F
:0112B6000037
:0112B7002214
:0B118100900059EBF0A3EAF0A3E9F0A6
:10118C00785C7C007D017BFF7A12798E7E007F0279
:10119C001200F690005C7412F0A37434F07B017AA8
:0A11AC0000795C7F02120F517F00F2
:0111B6002216
:0B106000900059EBF0A3EAF0A3E9F0C8
:10106B00785C7C007D017BFF7A1279907E007F0497
:10107B001200F690005C7455F0A37466F0A3743202
:10108B00F0A314F07B017A00795C7F04120F517F7F
:01109B000054
:01109C002231
:0B114A00900059EBF0A3EAF0A3E9F0DD
:10115500E4FFFDFC900059E0FBA3E0FAA3E02403C3
:10116500F9E43AFAE92DF9EA3CFA12011CFF0DBD42
:0B11750000010CED64034C70DB7F00F8
:01118000224C
:0B10D900900059EBF0A3EAF0A3E9F04F
:1010E400785C7C007D017BFF7A1279947E007F031B
:1010F4001200F690005C7413F0A37457F0A374907C
:0E110400F07B017A00795C7F03120F517F00AF
:0111120022BA
:10102200E4900066F0A3EBF0A3EAF0A3E9F07F01FD
:101032007E00900067E0FBA3E0FAA3E0F98F828EC6
:1010420083120135FD900066E02DF00FBF00010E06
:0D105200EF64074E70DC900066E0F404FFD0
:01105F00226E
:100FE300E4FFFE78597C007D017BFF7A1279977FBD
:100FF300041200F6E490000CF0FEFF74592FF58202
:1010030074003EF583E0FD740D2FF58274003EF508
:0E10130083EDF00FBF00010EEF64044E70DDA0
:0110210022AC
:100F5100900067EBF0A3EAF0A3E9F0900066EFF0F0
:100F6100E4FDFC90000CEFF0E4900066E0FFC3EDBF
:100F71009FEC94005024A3E0FBA3E0FAA3E0F98DD9
:100F8100828C83120135FF740D2DF58274003CF5BE
:0A0F910083EFF00DBD00010C80CFCE
:010F9B002233
:0B08D300900059EBF0A3EAF0A3E9F05D
:1008DE00E4A3F0EF14601314602A24FE6040240495
:1008EE00705690005E74B0F080667BFF7A12797A53
:1008FE0012000E7BFF7A12797A120F5190005E74FD
:10090E00B1F0804C7BFF7A12797F12000E7BFF7A5A
:10091E0012797F120F5190005E74B2F080327BFF1D
:10092E007A12798412000E7BFF7A127984120F519B
:10093E0090005E74B4F080187BFF7A1279891200F1
:10094E000E7BFF7A127989120F5190005E74B3F00C
:10095E0090005D7434F090000CE090005FF0E49035
:10096E00005CF090005CE0FF240DF582E43400F5AD
:10097E0083E0FE74602FF582E43400F583EEF09090
:10098E00005CE004F0E0B404DA7B017A00795D12D9
:10099E001022900064EFF0A37481F07B017A00794D
:0609AE005D7D09120F043B
:0109B4002220
:0B0B4B00900055EBF0A3EAF0A3E9F0E6
:100B5600E4A3F0120FE3900055E0FBA3E0FAA3E054
:100B6600F990000112013524F5601B14602D146004
:100B76003F24CF60501460622435707112111390B7
:100B86000058EFF08067900055E0FBA3E0FAA3E081
:100B9600F912129B900058EFF08052900055E0FB3E
:100BA600A3E0FAA3E0F9121181900058EFF0803D1E
:100BB600900055E0FBA3E0FAA3E0F9121060900064
:100BC60058EFF08028900055E0FBA3E0FAA3E0F987
:100BD60012114A900058EFF08013900055E0FBA3E5
:100BE600E0FAA3E0F91210D9900058EFF0900058FF
:100BF600E0FF900055E0FBA3E0FAA3E0F91208D36A
:010C060022CB
:1007AB00E4FFFE90001375F006EF12033AEE75F0BE
:1007BB0006A42583F583E0FDF470030208CE120135
:1007CB001C643460030208C69000011201356D6091
:1007DB00030208C690000812013564816003020809
:1007EB00C690001475F006EF12033AEE75F006A4EE
:1007FB002583F583E0B4FD1B90001575F006EF1211
:10080B00033AEE75F006A42583F583E064FD7003CF
:10081B000208C5900002120135FD90001475F00618
:10082B00EF12033AEE75F006A42583F583E0B505C8
:10083B001890001575F006EF12033AEE75F006A44A
:10084B002583F583E064FD607190001475F006EF6D
:10085B0012033AEE75F006A42583F583E0B4FD1E72
:10086B00900003120135FD90001575F006EF120391
:10087B003AEE75F006A42583F583E06D603C90009D
:10088B0002120135FD90001475F006EF12033AEEDB
:10089B0075F006A42583F583E0B5051F90000312C0
:1008AB000135FD90001575F006EF12033AEE75F069
:1008BB0006A42583F583E0B50501220FBF00010EC9
:0708CB000207AE7EFF7FFF74
:0108D2002203
:100C07007B017A007900900050EBF0A3EAF0A3E9AA
:100C1700F0E4A3F0A3F0121022900050E0FBA3E051
:100C2700FAA3E0F99000071201356F60067F021200
:100C370008D322900050E0FBA3E0FAA3E0F91207E3
:100C4700AB900053EEF0A3EFF0C3EE6480948050B6
:100C570011900050E0FBA3E0FAA3E0F97F0312082C
:100C6700D322900053E0FEA3E090001675F0061221
:100C7700033AEE75F006A42583F583E0FBA3E0FABB
:100C8700A3E04A4B7011900050E0FBA3E0FAA3E009
:100C9700F97F011208D322900050E0FBA3E0FAA3EA
:050CA700E0F9120B4B07
:010CAC002225
:0B137900EF1FAC0670011E4C70F62246
:100E4800900009E0FE04F074002EF582E43400F509
:100E580083EFF0900009E0FF700F74002FF582E433
:100E68003400F583E064347045900009E0FF6409BC
:100E7800703C74FF2FF582E434FFF583E0B4810BF6
:100E8800E4900009F090003D04F0227B007A00799C
:100E9800007F041208D37E007F097D007B017A0061
:0F0EA8007900120373E4900009F090003DF022EE
:0E0F0400900066EBF0A3EAF0A3E9F0A3EDF095
:100F1200C2ACE4A3F0900069E0FFA3E0C39F502CB1
:100F22007F407E00121379900066E0FBA3E0FAA3F3
:100F3200E0F990006AE0F582758300120135FDE464
:0E0F4200FF12130B90006AE004F080C9D2ACDD
:010F5000227E
:1012F00090003DE06014E4F0120C077E007F097D51
:0B130000007B017A00790012037322C9
:100DD500A2AF9200C2AF75C7AA75C755439F01A2BE
:100DE5000092AF75A630E4F5A775AF04A2AF9200E7
:100DF500C2AF75C7AA75C75543A401A20092AF85B6
:100E0500AE0875A631F5A7A2AF9200C2AF75C7AA05
:100E150075C75543A401A20092AF85AE09A2AF9252
:100E250000C2AF75C7AA75C755539FFEA20092AF02
:100E350075C7AA75C75585088475C7AA75C7558529
:020E450009851D
:010E47002288
:100D4700E58720E403020DD4A2AF9200C2AF75C7B6
:100D5700AA75C755439F01A20092AF75A638E4F55F
:100D6700A775AF04A2AF9200C2AF75C7AA75C755E2
:100D770043A401A20092AF85AE0A75A639F5A7A2D2
:100D8700AF9200C2AF75C7AA75C75543A401A200A9
:100D970092AF85AE0BA2AF9200C2AF75C7AA75C757
:100DA70055539FFEA20092AF75C7AA75C755850A0E
:100DB7008475C7AA75C755850B85A2AF9200C2AFC8
:0D0DC70075C7AA75C755539FFEA20092AFD5
:010DD40022FC
:101234009000991202FD53B1BF53B2BF53B17F5313
:10124400B27F759850438920438780438E1053C4DE
:04125400DFD28E2235
:1012580090009D1202FD53B1BF53B2BF53B17F53EB
:10126800B27F75985043878053C4F853C4DF43C492
:0212780008224A
:071384003098FDAF99C298FB
:01138B00223F
:08138C00C2998F993099FD22EE
:1012B8009000A11202FD43B10453B2FB53B3BF53D4
:0C12C800B4BF75F85275C4F843C4082286
:0713940030F8FDAF9AC2F82A
:01139B00222F
:08139C00C2F98F9A30F9FD221D
:1009B5009000821202FD538EF7438901900086E074
:1009C5007002A3E07003020A7E7B407A42790F78B9
:1009D50000900082E0FCA3E0FDA3E0FEA3E0FF128F
:1009E5000258A804A905AA06AB07900088E0FEA353
:1009F500E0FFE4FCFD1201CDE47B0CFAF9F81202EC
:100A050058C374FF9FFF74FF9EFEE49DFDE49CFCAC
:100A1500EFE48F8A7B407A42790FF8900082E0FC00
:100A2500A3E0FDA3E0FEA3E0FF120258A804A90578
:100A3500AA06AB07900088E0FEA3E0FFE4FCFD12E8
:100A450001CDE47B0CFAF9F8120258C374FF9FFF3D
:100A550074FF9EFEE49DFDE49CFC78081202EA8F7B
:100A65008CD28C308DFDC28D900087E024FFF090F4
:0C0A75000086E034FFF00209C1C28C22B0
:100A810090008A1202FD538EEF43891090008EE090
:100A91007002A3E07003020B487B407A42790F7821
:100AA1000090008AE0FCA3E0FDA3E0FEA3E0FF12BA
:100AB1000258C004A905AA06AB07900090E0FEA366
:100AC100E0FF7C007D0C120162E4FCFDD00012010C
:100AD100CDC3E49FFFE49EFE74019DFDE49CFCEF09
:100AE100E48F8B7B407A42790FF890008AE0FCA377
:100AF100E0FDA3E0FEA3E0FF120258C004A905AA8D
:100B010006AB07900090E0FEA3E0FF7C007D0C1295
:100B11000162E4FCFDD0001201CDC3E49FFFE49E1D
:100B2100FE74019DFDE49CFC78081202EA8F8DD2CF
:100B31008E308FFDC28F90008FE024FFF090008EE9
:0A0B4100E034FFF0020A8DC28E229C
:1005240090006B1202FDE4F59190006FE0FEA3E0F1
:100534008EF0120346055D000105620004056A00A1
:100544001005720020057A004005820080058A01AA
:1005540000059202000000059853C98F803653C9E4
:100564008F43C910802E53C98F43C920802653C995
:100574008F43C930801E53C98F43C940801653C965
:100584008F43C950800E53C98F43C960800653C935
:100594008F43C970C2C843C98043C904900071E045
:1005A4007002A3E070030206717B407A42790F78EF
:1005B4000090006BE0FCA3E0FDA3E0FEA3E0FF12CB
:1005C4000258900073E0F8A3E0F9A3E0FAA3E0FB7B
:1005D4001201CDC006C00790006FE0FEA3E0FFFB50
:1005E400AA06E4F9F8D007D006120258C3E49FFF24
:1005F400E49EFE74019DFDE49CFCEFE48FCC7B4003
:100604007A42790FF890006BE0FCA3E0FDA3E0FED2
:10061400A3E0FF120258900073E0F8A3E0F9A3E00E
:10062400FAA3E0FB1201CDC006C00790006FE0FE04
:10063400A3E0FFFBAA06E4F9F8D007D0061202589B
:10064400C3E49FFFE49EFE74019DFDE49CFC7808D6
:100654001202EA8FCDD2CA30CFFDC2CF900072E031
:1006640024FFF0900071E034FFF00205A0C2CA221A
:100674009000771202FDE4F59190007BE024FE6087
:100684002124FE602524FC602924F8602D24F060D8
:100694003124E0603524C06039247F703B53C4F8B2
:1006A400803653C4F843C401802E53C4F843C402B3
:1006B400802653C4F843C403801E53C4F843C404BF
:1006C400801653C4F843C405800E53C4F843C406CB
:1006D400800653C4F843C40790007CE07002A3E092
:1006E40070030207A753C4EF7B407A42790F780066
:1006F400900077E0FCA3E0FDA3E0FEA3E0FF12027C
:100704005890007EE0F8A3E0F9A3E0FAA3E0FB121E
:1007140001CDC00790007BE0FFFBE4FAF9F8D007B5
:10072400120258C3E49FFFE49EFE74019DFDE49C05
:10073400FCEFE48FC57B407A42790FF8900077E0B4
:10074400FCA3E0FDA3E0FEA3E0FF12025890007EAC
:10075400E0F8A3E0F9A3E0FAA3E0FB1201CDC0079F
:1007640090007BE0FFFBE4FAF9F8D007120258C3CB
:10077400E49FFFE49EFE74019DFDE49CFC78081256
:1007840002EA8FC643C408E5C444EF64EF60F8533B
:10079400C4EF90007DE024FFF090007CE034FFF093
:0707A4000206DC53C4F7223A
:1012D400EF14600D14600D14600E2403700DD2A978
:0C12E40022D2AB22439B8022439C0222BA
:10039F009000501202FD900054E014605814700346
:1003AF000204972402600302052353B1BF43B240F6
:1003BF0043B18053B27F7598504389204387804360
:1003CF008E1053C4DFE47B10FAF9F8900050E0FC74
:1003DF00A3E0FDA3E0FEA3E0FF120258900055E05A
:1003EF00F8A3E0F9A3E0FAA3E0FB120258EFF4043C
:1003FF00F58DD28E2253B1BF43B24043B18053B279
:10040F007F75985043878053C4F843C420E47B1012
:10041F00FAF9F8900050E0FCA3E0FDA3E0FEA3E0A2
:10042F00FF120258900055E0F8A3E0F9A3E0FAA3F9
:10043F00E0FB120258C3E49FFFE49EFE74019DFD92
:10044F00E49CFC78081202EA8FC6E47B10FAF9F8F4
:10045F00900050E0FCA3E0FDA3E0FEA3E0FF12023A
:10046F0058900055E0F8A3E0F9A3E0FAA3E0FB12DF
:10047F000258C3E49FFFE49EFE74019DFDE49CFCC3
:10048F00EFE48FC543C4082253B3BF43B44043B115
:10049F000453B2FB75F85075C480E47B10FAF9F879
:1004AF00900050E0FCA3E0FDA3E0FEA3E0FF1202EA
:1004BF0058900055E0F8A3E0F9A3E0FAA3E0FB128F
:1004CF000258C3E49FFFE49EFE74019DFDE49CFC73
:1004DF0078081202EA8FC6E47B10FAF9F890005000
:1004EF00E0FCA3E0FDA3E0FEA3E0FF1202589000A2
:1004FF0055E0F8A3E0F9A3E0FAA3E0FB120258C31A
:10050F00E49FFFE49EFE74019DFDE49CFCEFE48FED
:05051F00C543C40822E1
:10132600EF14600C0470103098FDAE99C2988007D7
:0913360030F8FDAE9AC2F8AF06D2
:01133F00228B
:10130B00EF14600D047013C2998D9920990C80FB1A
:0B131B0022C2F9AF058F9A30F9FD22C5
:03000000020CAD42
:100CAD00787FE4F6D8FD9000007FFF7E03E4F0A38B
:0A0CBD00DFFCDEFA758120020D0253
:100CC700021367E493A3F8E493A34003F68001F2C9
:100CD70008DFF48029E493A3F85407240CC8C3332E
:100CE700C4540F4420C8834004F456800146F6DFFD
:100CF700E4800B0102040810204080900EB7E47EC8
:100D0700019360BCA3FF543F30E509541FFEE493F1
:100D1700A360010ECF54C025E060A840B8E493A3B8
:100D2700FAE493A3F8E493A3C8C582C8CAC583CAE3
:100D3700F0A3C8C582C8CAC583CADFE9DEE780BE9B
:010F030000ED
:10002600E709F608DFFA8046E709F208DFFA803EBC
:1000360088828C83E709F0A3DFFA8032E309F608A9
:10004600DFFA8078E309F208DFFA807088828C8311
:10005600E309F0A3DFFA806489828A83E0A3F608C5
:10006600DFFA805889828A83E0A3F208DFFA804C9F
:1000760080D280FA80C680D4806980F28033801076
:1000860080A680EA809A80A880DA80E280CA8033DF
:1000960089828A83ECFAE493A3C8C582C8CCC58357
:1000A600CCF0A3C8C582C8CCC583CCDFE9DEE78027
:1000B6000D89828A83E493A3F608DFF9ECFAA9F0A6
:1000C600EDFB2289828A83ECFAE0A3C8C582C8CCFC
:1000D600C583CCF0A3C8C582C8CCC583CCDFEADE15
:1000E600E880DB89828A83E493A3F208DFF980CC77
:1000F60088F0EF60010E4E60C388F0ED2402B40470
:100106000050B9F582EB2402B4040050AF23234516
:06011600822390007673C5
:10011C00BB010689828A83E0225002E722BBFE02E1
:09012C00E32289828A83E4932214
:10013500BB010CE58229F582E5833AF583E022507F
:1001450006E92582F8E622BBFE06E92582F8E222C9
:0D015500E58229F582E5833AF583E49322E3
:10016200BC000BBE0029EF8DF084FFADF022E4CC81
:10017200F875F008EF2FFFEE33FEEC33FCEE9DEC4A
:10018200984005FCEE9DFE0FD5F0E9E4CEFD22ED90
:10019200F8F5F0EE8420D21CFEADF075F008EF2FDA
:1001A200FFED33FD4007985006D5F0F222C398FDCB
:0501B2000FD5F0EA2268
:1001B700A3F8E0C5F025F0F0E582158270021583FB
:0601C700E0C838F0E82258
:1001CD00E88FF0A4CC8BF0A42CFCE98EF0A42CFCD1
:1001DD008AF0EDA42CFCEA8EF0A4CDA8F08BF0A44F
:1001ED002DCC3825F0FDE98FF0A42CCD35F0FCEBAE
:1001FD008EF0A4FEA9F0EB8FF0A4CFC5F02ECD3973
:0F020D00FEE43CFCEAA42DCE35F0FDE43CFC22DF
:10021C0075F008758200EF2FFFEE33FECD33CDCC99
:10022C0033CCC58233C5829BED9AEC99E58298401C
:10023C000CF582EE9BFEED9AFDEC99FC0FD5F0D6F9
:10024C00E4CEFBE4CDFAE4CCF9A88222B800C1B923
:10025C000059BA002DEC8BF084CFCECDFCE5F0CB61
:10026C00F97818EF2FFFEE33FEED33FDEC33FCEB9A
:10027C0033FB10D703994004EB99FB0FD8E5E4F955
:10028C00FA227818EF2FFFEE33FEED33FDEC33FC42
:10029C00C933C910D7059BE99A4007EC9BFCE99A36
:1002AC00F90FD8E0E4C9FAE4CCFB2275F010EF2F7B
:1002BC00FFEE33FEED33FDCC33CCC833C810D7077B
:1002CC009BEC9AE899400AED9BFDEC9AFCE899F8B6
:0E02DC000FD5F0DAE4CDFBE4CCFAE4C8F92249
:1002EA00E8600FECC313FCED13FDEE13FEEF13FFF2
:0302FA00D8F12216
:0C02FD00ECF0A3EDF0A3EEF0A3EFF02274
:10030900A8828583F0D083D08212032012032012A1
:100319000320120320E473E493A3C583C5F0C583C6
:10032900C8C582C8F0A3C583C5F0C583C8C582C83E
:0103390022A1
:0C033A00A42582F582E5F03583F58322CE
:10034600D083D082F8E4937012740193700DA3A346
:1003560093F8740193F5828883E473740293B5F07D
:0D036600067403936860E9A3A3A3A380D8E5
:10000E00E4FFFE12011C600C0FEF70010E09E97087
:05001E00F20A80EF2250
:10037300EF4E6012EF60010EEDBB010B89828A83A1
:10038300F0A3DFFCDEFA2289F05007F709DFFCA9AE
:0C039300F022BBFEFCF309DFFCA9F02205
:00000001FF
