:100DB40041009500410096004100900142009100DD
:060DC40000420093000054
:10000E00900090E06005D292E4F022C292900090AF
:03001E007401F07A
:0100210022BC
:0711E40053B3FB43B40422E6
:100F5700900093E475F0011200C1FEC3E5F094F42C
:100F6700EE9401400AE4900093F0A3F012000E9073
:100F77000091E475F0011200C1FEC3E5F094E8EEBC
:0B0F870094034007E4900091F0A3F0F9
:010F9200223C
:03000B00020FC61B
:100FC600C0E0C0F0C083C082C0D075D000C000C0F1
:100FD60006900095E0F58CA3E0F58AC28D120F57B6
:0F0FE600D006D000D0D0D082D083D0F0D0E0326F
:10104400E490004FF0A3F0F5915389F043890190A7
:10105400009574F8F0A37430F0758CF8F58AD2A971
:04106400D2AFD28CA9
:011068002265
:03002300020E4E7C
:100E4E00C0E0C0F0C083C082C0D075D000C000C06A
:100E5E0001C002C003C004C005C006C00730980719
:100E6E00AF99120D45C298309902C299D007D0069B
:100E7E00D005D004D003D002D001D000D0D0D08283
:070E8E00D083D0F0D0E03268
:100FF5009000537401F0A31202130001C2007F0098
:101005007E367D6E7C011202A9D299D2ACD2AFE4B4
:09101500900009F090003DF0226A
:10119400120C44E4F5B1F5B2F5B3F5B4F5ACF5AD24
:0311A400D2AF22A5
:1011A700121194120FF51211E41210441211448017
:0211B700FB2219
:080003003099FDC2998F99228A
:100DCA004100090041003D00602A00130A04FDFFAA
:100DDA000E950B01FDFF10D10C02FDFF108D0D04C5
:100DEA00FDFF0F933E03FDFF0ED73F03FDFF101ECD
:060DFA00FF0000000000F4
:0B0E9500900058EBF0A3EAF0A3E9F096
:100EA000E4FF900067F0A3F0FBFD1210F0900058F3
:100EB000E0FBA3E0FAA3E0F990000312003FFF90EB
:100EC000000412003FFF90000512003FFF90000653
:060ED00012003FFF7F004D
:010ED60022F9
:0B10D100900058EBF0A3EAF0A3E9F058
:1010DC007F967D96E4900067F0A3F0FB7F011210E1
:0310EC00F07F0092
:0110EF0022DE
:0B108D00900058EBF0A3EAF0A3E9F09C
:101098007B347A12EAFD7434E4900067F0A3F07FA1
:0610A800021210F07F00AF
:0110AE00221F
:0B0F9300900058EBF0A3EAF0A3E9F097
:100F9E007B667A55A37432F0A314F0EAFD74669062
:100FAE00005BE0900067F090005BA3E0900068F0BB
:070FBE007F041210F07F0018
:010FC5002209
:0B0ED700900058EBF0A3EAF0A3E9F054
:100EE200E4FF900067F0A3F0FBFD1210F0900058B1
:100EF200E0FBA3E0FAA3E0F990000312003FFF90A9
:100F0200000412003FFF90000512003FFF90000610
:060F120012003FFF7F000A
:010F180022B6
:0B101E00900058EBF0A3EAF0A3E9F00B
:101029007B577A137C90EAFD7457900067E4F0745B
:0A10390090A3F07F031210F07F0077
:01104300228A
:100F1900E4900064F0A3EBF0A3EAF0A3E9F07F0109
:100F29007E00900065E0FBA3E0FAA3E0F98F828ED2
:100F39008312003FFD900064E02DF00FBF00010E09
:0D0F4900EF64074E70DC900064E0F404FFDC
:010F56002278
:1010F00090000CEFF0A3EDF0A3EBF0900067E09010
:0C110000000FF0900068E0900010F0225A
:0B07DD00900058EBF0A3EAF0A3E9F055
:1007E800EF14601314602B24FE60422404705990A7
:1007F800005C74B0F0806A9000677455F0A3745080
:10080800F07B537D4EE4FF1210F090005C74B1F061
:10081800804F9000677455F0A3744DF07B537D456D
:10082800E4FF1210F090005C74B2F080349000671E
:100838007444F0A37446F07B417D42E4FF1210F04B
:1008480090005C74B4F080199000677443F0A3744E
:100858004BF07B417D4EE4FF1210F090005C74B3C6
:10086800F090005B7434F090000CE090005DF09024
:10087800000DE090005EF090000EE090005FF090B8
:10088800000FE0900060F0900010E0900061F07BB5
:10089800017A00795B120F19900062EFF0A374815E
:0C08A800F07B017A00795B7D09120E01E3
:0108B4002221
:0B0A4B00900054EBF0A3EAF0A3E9F0E8
:100A5600E4A3F0900054E0FBA3E0FAA3E0F99000D1
:100A66000112003F24F5601B14602D14603F24CF53
:100A7600605014606224357071120E95900057EF25
:100A8600F08067900054E0FBA3E0FAA3E0F91210AF
:100A9600D1900057EFF08052900054E0FBA3E0FAAB
:100AA600A3E0F912108D900057EFF0803D900054AE
:100AB600E0FBA3E0FAA3E0F9120F93900057EFF0E2
:100AC6008028900054E0FBA3E0FAA3E0F9120ED7C9
:100AD600900057EFF08013900054E0FBA3E0FAA3D8
:100AE600E0F912101E900057EFF0900057E0FF90CB
:0D0AF6000054E0FBA3E0FAA3E0F91207DDD5
:010B030022CF
:1006B500E4FFFE90001375F006EF120244EE75F0AC
:1006C50006A42583F583E0FDF470030207D8120024
:1006D50026643460030207D090000112003F6D606C
:1006E500030207D090000812003F648160030207EF
:1006F500D090001475F006EF120244EE75F006A4D2
:100705002583F583E0B4FD1B90001575F006EF1207
:100715000244EE75F006A42583F583E064FD7003BD
:100725000207CF90000212003FFD90001475F006FD
:10073500EF120244EE75F006A42583F583E0B505B6
:100745001890001575F006EF120244EE75F006A438
:100755002583F583E064FD607190001475F006EF64
:10076500120244EE75F006A42583F583E0B4FD1E60
:1007750090000312003FFD90001575F006EF120280
:1007850044EE75F006A42583F583E06D603C90008A
:100795000212003FFD90001475F006EF120244EEC0
:1007A50075F006A42583F583E0B5051F90000312B7
:1007B500003FFD90001575F006EF120244EE75F04E
:1007C50006A42583F583E0B50501220FBF00010EC0
:0707D5000206B87EFF7FFF62
:0107DC0022FA
:100B04007B017A00790090004FEBF0A3EAF0A3E9AF
:100B1400F0E4A3F0A3F0120F1990004FE0FBA3E060
:100B2400FAA3E0F990000712003F6F60067F0212FB
:100B340007DD2290004FE0FBA3E0FAA3E0F91206E0
:100B4400B5900052EEF0A3EFF0C3EE6480948050B1
:100B54001190004FE0FBA3E0FAA3E0F97F03120732
:100B6400DD22900052E0FEA3E090001675F006121C
:100B74000244EE75F006A42583F583E0FBA3E0FAB6
:100B8400A3E04A4B701190004FE0FBA3E0FAA3E00E
:100B9400F97F011207DD2290004FE0FBA3E0FAA3E6
:050BA400E0F9120A4B0C
:010BA9002229
:100D4500900009E0FE04F074002EF582E43400F50D
:100D550083EFF0900009E0FF700F74002FF582E437
:100D65003400F583E064347045900009E0FF6409C0
:100D7500703C74FF2FF582E434FFF583E0B4810BFA
:100D8500E4900009F090003D04F0227B007A0079A0
:100D9500007F041207DD7E007F097D007B017A005C
:0F0DA500790012027DE4900009F090003DF022E9
:0B11B900EF1FAC0670011E4C70F62208
:0E0E0100900064EBF0A3EAF0A3E9F0A3EDF09B
:100E0F00C2ACE4A3F0900067E0FFA3E0C39F502CB7
:100E1F007F407E001211B9900064E0FBA3E0FAA3BB
:100E2F00E0F9900068E0F58275830012003FFDE461
:0E0E3F00FF12115F900068E004F080C9D2AC91
:010E4D002282
:1011440090003DE06014E4F0120B047E007F097D02
:0B115400007B017A00790012027D226E
:100CD200A2AF9200C2AF75C7AA75C755439F01A2C2
:100CE2000092AF75A630E4F5A775AF04A2AF9200EB
:100CF200C2AF75C7AA75C75543A401A20092AF85BA
:100D0200AE0875A631F5A7A2AF9200C2AF75C7AA09
:100D120075C75543A401A20092AF85AE09A2AF9256
:100D220000C2AF75C7AA75C755539FFEA20092AF06
:100D320075C7AA75C75585088475C7AA75C755852D
:020D4200098521
:010D4400228C
:100C4400E58720E403020CD1A2AF9200C2AF75C7BE
:100C5400AA75C755439F01A20092AF75A638E4F563
:100C6400A775AF04A2AF9200C2AF75C7AA75C755E6
:100C740043A401A20092AF85AE0A75A639F5A7A2D6
:100C8400AF9200C2AF75C7AA75C75543A401A200AD
:100C940092AF85AE0BA2AF9200C2AF75C7AA75C75B
:100CA40055539FFEA20092AF75C7AA75C755850A12
:100CB4008475C7AA75C755850B85A2AF9200C2AFCC
:0D0CC40075C7AA75C755539FFEA20092AFD9
:010CD1002200
:1010690090009712020753B1BF53B2BF53B17F53D8
:10107900B27F759850438920438780438E1053C4AB
:04108900DFD28E2202
:1010AF0090009B12020753B1BF53B2BF53B17F538E
:1010BF00B27F75985043878053C4F853C4DF43C43D
:0210CF000822F5
:0711C4003098FDAF99C298BD
:0111CB002201
:0811CC00C2998F993099FD22B0
:10110C0090009F12020743B10453B2FB53B3BF5379
:0C111C00B4BF75F85275C4F843C4082233
:0711D40030F8FDAF9AC2F8EC
:0111DB0022F1
:0811DC00C2F98F9A30F9FD22DF
:1008B500900080120207538EF7438901900084E06F
:1008C5007002A3E0700302097E7B407A42790F78BB
:1008D50000900080E0FCA3E0FDA3E0FEA3E0FF1292
:1008E5000162A804A905AA06AB07900086E0FEA34D
:1008F500E0FFE4FCFD1200D7E47B0CFAF9F81201E5
:1009050062C374FF9FFF74FF9EFEE49DFDE49CFCA3
:10091500EFE48F8A7B407A42790FF8900080E0FC03
:10092500A3E0FDA3E0FEA3E0FF120162A804A90570
:10093500AA06AB07900086E0FEA3E0FFE4FCFD12EB
:1009450000D7E47B0CFAF9F8120162C374FF9FFF2C
:1009550074FF9EFEE49DFDE49CFC78081201F48F73
:100965008CD28C308DFDC28D900085E024FFF090F7
:0C0975000084E034FFF00208C1C28C22B4
:10098100900088120207538EEF43891090008CE08B
:100991007002A3E07003020A487B407A42790F7823
:1009A10000900088E0FCA3E0FDA3E0FEA3E0FF12BD
:1009B1000162C004A905AA06AB0790008EE0FEA360
:1009C100E0FF7C007D0C12006CE4FCFDD000120005
:1009D100D7C3E49FFFE49EFE74019DFDE49CFCEF00
:1009E100E48F8B7B407A42790FF8900088E0FCA37A
:1009F100E0FDA3E0FEA3E0FF120162C004A905AA85
:100A010006AB0790008EE0FEA3E0FF7C007D0C1298
:100A1100006CE4FCFDD0001200D7C3E49FFFE49E0C
:100A2100FE74019DFDE49CFC78081201F48F8DD2C7
:100A31008E308FFDC28F90008DE024FFF090008CEE
:0A0A4100E034FFF002098DC28E229E
:10042E00900069120207E4F59190006DE0FEA3E0E2
:10043E008EF012025004670001046C000404740074
:10044E0010047C002004840040048C00800494017D
:10045E0000049C0200000004A253C98F803653C9C9
:10046E008F43C910802E53C98F43C920802653C98C
:10047E008F43C930801E53C98F43C940801653C95C
:10048E008F43C950800E53C98F43C960800653C92C
:10049E008F43C970C2C843C98043C90490006FE03E
:1004AE007002A3E0700302057B7B407A42790F78DD
:1004BE0000900069E0FCA3E0FDA3E0FEA3E0FF12C4
:1004CE000162900071E0F8A3E0F9A3E0FAA3E0FB6B
:1004DE001200D7C006C00790006DE0FEA3E0FFFB40
:1004EE00AA06E4F9F8D007D006120162C3E49FFF12
:1004FE00E49EFE74019DFDE49CFCEFE48FCC7B40FA
:10050E007A42790FF8900069E0FCA3E0FDA3E0FECB
:10051E00A3E0FF120162900071E0F8A3E0F9A3E0FE
:10052E00FAA3E0FB1200D7C006C00790006DE0FEF4
:10053E00A3E0FFFBAA06E4F9F8D007D00612016289
:10054E00C3E49FFFE49EFE74019DFDE49CFC7808CD
:10055E001201F48FCDD2CA30CFFDC2CF900070E021
:10056E0024FFF090006FE034FFF00204AAC2CA220A
:10057E00900075120207E4F591900079E024FE6078
:10058E002124FE602524FC602924F8602D24F060CF
:10059E003124E0603524C06039247F703B53C4F8A9
:1005AE00803653C4F843C401802E53C4F843C402AA
:1005BE00802653C4F843C403801E53C4F843C404B6
:1005CE00801653C4F843C405800E53C4F843C406C2
:1005DE00800653C4F843C40790007AE07002A3E08B
:1005EE0070030206B153C4EF7B407A42790F780054
:1005FE00900075E0FCA3E0FDA3E0FEA3E0FF120176
:10060E006290007CE0F8A3E0F9A3E0FAA3E0FB120D
:10061E0000D7C007900079E0FFFBE4FAF9F8D007A5
:10062E00120162C3E49FFFE49EFE74019DFDE49CF3
:10063E00FCEFE48FC57B407A42790FF8900075E0AD
:10064E00FCA3E0FDA3E0FEA3E0FF12016290007C9C
:10065E00E0F8A3E0F9A3E0FAA3E0FB1200D7C0078D
:10066E00900079E0FFFBE4FAF9F8D007120162C3BB
:10067E00E49FFFE49EFE74019DFDE49CFC7808124D
:10068E0001F48FC643C408E5C444EF64EF60F85329
:10069E00C4EF90007BE024FFF090007AE034FFF08E
:0706AE000205E653C4F72228
:10112800EF14600D14600D14600E2403700DD2A925
:0C11380022D2AB22439B8022439C022267
:1002A90090004F120207900053E014605814700335
:1002B9000203A12402600302042D53B1BF43B240DB
:1002C90043B18053B27F7598504389204387804357
:1002D9008E1053C4DFE47B10FAF9F890004FE0FC6C
:1002E900A3E0FDA3E0FEA3E0FF120162900054E049
:1002F900F8A3E0F9A3E0FAA3E0FB120162EFF4042A
:10030900F58DD28E2253B1BF43B24043B18053B26F
:100319007F75985043878053C4F843C420E47B1009
:10032900FAF9F890004FE0FCA3E0FDA3E0FEA3E09A
:10033900FF120162900054E0F8A3E0F9A3E0FAA3E8
:10034900E0FB120162C3E49FFFE49EFE74019DFD80
:10035900E49CFC78081201F48FC6E47B10FAF9F8E2
:1003690090004FE0FCA3E0FDA3E0FEA3E0FF120133
:1003790062900054E0F8A3E0F9A3E0FAA3E0FB12CD
:100389000162C3E49FFFE49EFE74019DFDE49CFCB1
:10039900EFE48FC543C4082253B3BF43B44043B10C
:1003A9000453B2FB75F85075C480E47B10FAF9F870
:1003B90090004FE0FCA3E0FDA3E0FEA3E0FF1201E3
:1003C90062900054E0F8A3E0F9A3E0FAA3E0FB127D
:1003D9000162C3E49FFFE49EFE74019DFDE49CFC61
:1003E90078081201F48FC6E47B10FAF9F890004FEF
:1003F900E0FCA3E0FDA3E0FEA3E0FF120162900090
:1004090054E0F8A3E0F9A3E0FAA3E0FB120162C308
:10041900E49FFFE49EFE74019DFDE49CFCEFE48FE4
:05042900C543C40822D8
:10117A00EF14600C0470103098FDAE99C298800785
:09118A0030F8FDAE9AC2F8AF0680
:011193002239
:10115F00EF14600D047013C2998D9920990C80FBC8
:0B116F0022C2F9AF058F9A30F9FD2273
:03000000020BAA46
:100BAA00787FE4F6D8FD9000007FFF7E03E4F0A38F
:0A0BBA00DFFCDEFA758120020BFF5C
:100BC4000211A7E493A3F8E493A34003F68001F28F
:100BD40008DFF48029E493A3F85407240CC8C33332
:100BE400C4540F4420C8834004F456800146F6DF01
:100BF400E4800B0102040810204080900DB4E47ED0
:100C0400019360BCA3FF543F30E509541FFEE493F5
:100C1400A360010ECF54C025E060A840B8E493A3BC
:100C2400FAE493A3F8E493A3C8C582C8CAC583CAE7
:100C3400F0A3C8C582C8CAC583CADFE9DEE780BE9F
:010E000000F1
:10002600BB010689828A83E0225002E722BBFE02D8
:09003600E32289828A83E493220B
:10003F00BB010CE58229F582E5833AF583E0225076
:10004F0006E92582F8E622BBFE06E92582F8E222C0
:0D005F00E58229F582E5833AF583E49322DA
:10006C00BC000BBE0029EF8DF084FFADF022E4CC78
:10007C00F875F008EF2FFFEE33FEEC33FCEE9DEC41
:10008C00984005FCEE9DFE0FD5F0E9E4CEFD22ED87
:10009C00F8F5F0EE8420D21CFEADF075F008EF2FD1
:1000AC00FFED33FD4007985006D5F0F222C398FDC2
:0500BC000FD5F0EA225F
:1000C100A3F8E0C5F025F0F0E582158270021583F2
:0600D100E0C838F0E8224F
:1000D700E88FF0A4CC8BF0A42CFCE98EF0A42CFCC8
:1000E7008AF0EDA42CFCEA8EF0A4CDA8F08BF0A446
:1000F7002DCC3825F0FDE98FF0A42CCD35F0FCEBA5
:100107008EF0A4FEA9F0EB8FF0A4CFC5F02ECD3969
:0F011700FEE43CFCEAA42DCE35F0FDE43CFC22D6
:1001260075F008758200EF2FFFEE33FECD33CDCC90
:1001360033CCC58233C5829BED9AEC99E582984013
:100146000CF582EE9BFEED9AFDEC99FC0FD5F0D6F0
:10015600E4CEFBE4CDFAE4CCF9A88222B800C1B91A
:100166000059BA002DEC8BF084CFCECDFCE5F0CB58
:10017600F97818EF2FFFEE33FEED33FDEC33FCEB91
:1001860033FB10D703994004EB99FB0FD8E5E4F94C
:10019600FA227818EF2FFFEE33FEED33FDEC33FC39
:1001A600C933C910D7059BE99A4007EC9BFCE99A2D
:1001B600F90FD8E0E4C9FAE4CCFB2275F010EF2F72
:1001C600FFEE33FEED33FDCC33CCC833C810D70772
:1001D6009BEC9AE899400AED9BFDEC9AFCE899F8AD
:0E01E6000FD5F0DAE4CDFBE4CCFAE4C8F92240
:1001F400E8600FECC313FCED13FDEE13FEEF13FFE9
:03020400D8F1220C
:0C020700ECF0A3EDF0A3EEF0A3EFF0226A
:10021300A8828583F0D083D08212022A12022A1286
:10022300022A12022AE473E493A3C583C5F0C583AB
:10023300C8C582C8F0A3C583C5F0C583C8C582C835
:010243002298
:0C024400A42582F582E5F03583F58322C5
:10025000D083D082F8E4937012740193700DA3A33D
:1002600093F8740193F5828883E473740293B5F074
:0D027000067403936860E9A3A3A3A380D8DC
:10027D00EF4E6012EF60010EEDBB010B89828A8398
:10028D00F0A3DFFCDEFA2289F05007F709DFFCA9A5
:0C029D00F022BBFEFCF309DFFCA9F022FC
:00000001FF
